:020000041004E6
:1008000000600020817A0410C76D0410654F041049
:10081000AA5555AA45554C420000000000000000B2
:1008200000000000000000000000000055920410CD
:10083000000000000000000029730410219704103C
:10084000B92E0410956E0410000000000000000096
:10085000399B04105392041089140410C59C041091
:100860000000000000000000000000000000000088
:1008700000000000730D0410694F0410674F04104E
:100880000000000047690410496904104B69041016
:100890004D690410A17A0410AF6E04101F1A0410E1
:1008A0000000000000000000000000000000000048
:1008B0000000000000000000000000000000000038
:1008C000EFF31482EFF309811C4880F31488BFF31F
:1008D0006F8FF0B543464C4655465E466746F8B4C2
:1008E000174CEFF30883236006B4164C2068164CAF
:1008F0002060164C2068164C2060164C2068164C60
:100900002060164C276800202060BFF34F8F30BF57
:1009100027600B4C246884F3088882B003BCF8BCC1
:100920009846A146AA46B346BC46F0BC04BC80F338
:10093000098881F31488BFF36F8F1047000000000F
:100940000800002004ED00E0DC02002024ED00E0BF
:10095000E002002000E200E0E40200200800204065
:100960000448854600F0C8F900480047E5F0041047
:10097000C046C0460060002030B50B46014600204E
:100980002022012409E00D46D5409D4205D31D4695
:100990009540491B2546954040191546521E002D8D
:1009A000F1DC30BD0549064A08685043054A801805
:1009B00008604008704701490860704754030020F0
:1009C0006D4EC6413930000010B5441A03469442BA
:1009D00009D28318891803E0491E0C785B1E1C702D
:1009E000521EF9D210BD0C460443A40703D009E0FF
:1009F00010C9121F10C3042AFAD203E00C781C702D
:100A0000491C5B1C521EF9D210BDD2B201E002702B
:100A1000401C491EFBD270470022F6E710B5134672
:100A20000A4604461946FFF7F0FF204610BD30B5D0
:100A300004460020034600E05B1C934203D2E05CC6
:100A4000CD5C401BF8D030BD0321001D401E037853
:100A500012021A43491EF9D510467047F8B50246EE
:100A60004A40D40F42004B0052085B089A4202D21F
:100A70000246084611464A0023D0C30D4A00DDB2A3
:100A8000120EAD1A202D35DA49020126490AF60563
:100A90008A19002C00D0524220214F1B1146B94028
:100AA0002A411018C20D9A4221D0002C17D0012DD6
:100AB00008DCDA05801AD20F8019D207DBB200F009
:100AC000E1F8F8BDDA05801A012340001B06C018C2
:100AD00080185A428018CA0F1043490007E049089D
:100AE000C2071143DA05801A80194008801800F007
:100AF000C1F8F8BD61000122511A001BF7E701227D
:100B0000D2075140AAE70122D2075040A6E7024689
:100B100070B54A40D30FDB0740002DD04A002AD0E1
:100B2000010E140E000212020919400A520A84181A
:100B3000E50104465443000A120A2E045043A41946
:100B40004219200CC543AA18120C0125AD03521CF2
:100B5000521912047F39240400D0521C104301D4CE
:100B60004000491EC2B20C06C0092018401C4008B3
:100B7000802A02D003E0002070BD40084000002918
:100B800000DA0020184370BD70B502464A40D50F08
:100B900040004A00ED0740085208002814D0002AFF
:100BA00012D0C40DD30D41020120C0055202490AE2
:100BB000520AE41A091812187D34914201D3641CB8
:100BC00000E04900002C01DA002070BD00239142B2
:100BD00001D3891A0343400849000028F7D10029AE
:100BE0000AD0914202D10121C90705E0914201D208
:100BF000012101E00121C943E005C018401900F0BE
:100C000039F870BDC217C10F504010B54018CA075F
:100C10009623002100F036F810BDC20F41004002BB
:100C20000123400ADB05D207090EC0187F2901DA2B
:100C300000207047962903DC9623591AC84001E02A
:100C400096398840002AF4D0404270474100400263
:100C50000122400AD205090E80187F2901DA0020FE
:100C60007047962903DC9622511AC840704796397E
:100C700088407047002904DA401C490001D140082F
:100C80004000704770B40024050C05D11024000406
:100C900002D1002921D01124050E01D1000208340F
:100CA000050F01D10001241D850F01D18000A41C76
:100CB000002801DB4000641C002908D020252E1BE1
:100CC0000D46F540A14000D001212943084301060B
:100CD0001B1B000ADB1D02D5002070BC7047DB0522
:100CE000181880180029F8DA401C4900F5D170BCAA
:100CF0004008400070470000064C0125064E05E004
:100D0000E36807CC2B430C3C98471034B442F7D32C
:100D1000FFF72AFE941605103417051070B58C18CD
:100D20000578401C6B075B0F01D10378401C2A112A
:100D300006D10278401C03E006780E70401C491C66
:100D40005B1EF9D12B0705D40023521E0DD40B7066
:100D5000491CFAE70378401CCB1A921C03E01D786B
:100D60000D70491C5B1C521EF9D5A142D8D300203E
:100D700070BD70477FB505469868012202739A6876
:100D80001C4651739868022202A90E3006F087F8BB
:100D9000A16805200D74E0807FBD70B50646088807
:100DA0001D460C46001D81B213460222304606F055
:100DB000DFF921882B46891C2180091D89B2022276
:100DC000304606F0D5F92088801C208070BDFEB525
:100DD00000240E462746056845E028680290A96869
:100DE000022230460D3106F05AF83088B84209D058
:100DF00087B2384602F0BAFC014601AA384603F031
:100E000047FB019CA968022268460F3106F047F8AB
:100E1000E888401F81B22220005D002806D001280A
:100E20000BD0002811D0012814D01BE0E08B6A46BB
:100E30001288401E904206D307E0208C6A46128832
:100E4000401E904206D20720FEBD68460088081862
:100E5000E18B03E0684600880818218C884201D99C
:100E60000D20FEBD029D002DB7D100203080FEBDBB
:100E7000FFB5C8880025401E83B00E4687B2012406
:100E800027E0B0680222083001196846091D06F003
:100E900006F86846008802F069FC01001DD068462B
:100EA0000A8D0088824212D001AA03F0F1FA0028CC
:100EB0000DD101992620405C400708D506986A00AC
:100EC000101802221C3105F0EAFF6D1CADB2A41C03
:100ED000A4B2BC42D5D30C98058007B0F0BDFFB5D5
:100EE000074683B0002000900D9802F03FFC069961
:100EF00005460C310191002826D00837BD4223D089
:100F0000288D0E9988421FD80D99884213D30E99C7
:100F1000884210D8294602222A31019805F0BFFFE5
:100F200010220C99069805F0B6FF002809D0298DEB
:100F30000E98814208D02E462C6A2036B4423FD10A
:100F400040E005980021018007B0F0BDA18B0D980D
:100F5000814234D30E98814234D82046203002900A
:100F6000C078012808D02046083010220C9905F0DE
:100F700092FF002808D022E0214602220831019881
:100F800005F08DFF0698F0E702988079400716D5A6
:100F90000098002801D1E08B0090E18B814211D1B3
:100FA00005980222008841000498081821461C3147
:100FB00005F075FF059805990088401C0880246895
:100FC000B442C3D12D6899E7064800210268492040
:100FD000400110180172417203218172C172002018
:100FE000704700004C03002070B50D4D04460123EE
:100FF0002868D902401890261A464069314609F0FF
:10100000BDFB010003D030464C6009F0A3FB492032
:10101000296840010918087A401C087270BD000058
:101020004C03002010B5044600202082A074A16863
:10103000A16161612060204605F090F8452801D04B
:10104000412010BDA08803210BF080FD04460CF068
:1010500075FA002813D072B60A48012201680920E7
:10106000000209184878A2401043487062B6002078
:101070000EF072FD002802D000200AF093FB002041
:1010800010BD00004C03002070B5C17C0E4D490618
:10109000490EC174044601232868D90240189026DD
:1010A00000224069314609F069FB010003D0304657
:1010B0004C6009F04FFB4920296840010918487A23
:1010C000401C487270BD00004C030020F8B5164665
:1010D0000D460746002407F093FE002806D032464E
:1010E0002946384600F01AFC044604E020356879A9
:1010F000002802D00E242046F8BD2879C10701D16E
:10110000012E09D0810701D4022E03D04007F2D46A
:10111000042EF0D10324EEE70224ECE77EB504466A
:1011200016460D46684603F079FA68460378237040
:10113000407828706846807830707EBD70B5002198
:101140000C4A03E0535C491C5918C9B2535C002B8C
:10115000F8D1CE1C02243525202E04D25454511827
:101160004D708870CB7004490C704D708870CB70D6
:1011700070BD0000580300201C00002070B508F06E
:1011800097FB1D4C01252068ED02411909790029C2
:1011900009D1A0300079C00727D00BF0F7FE00F08E
:1011A00023FC00F061FE00F0FFF8206801464031AA
:1011B0000A78C9798A4317D13E21095C002913D1E5
:1011C0000E490A8812070FD50922D2061269497AF8
:1011D000836A4019006FC900801A00025918001272
:1011E000814201DA0AF032FA70BD01F091FD02F09D
:1011F00017FB07F0F5FBD2E74C030020C0000020EE
:1012000010B5837F0122002492024168082B03D984
:101210004224914202D310E0914201D242240CE0D8
:1012200001463422064805F03AFE00F07FF8002817
:1012300001DA482401E008F05FFF204610BD0000FD
:10124000780300203EB5174D15482968827F08466F
:10125000A0310A7300246030047644768476E1225B
:10126000C2768022027702224277302008704C70CA
:1012700002AA01A96846FFF751FF68460078A2223A
:1012800001016846007A891C000201436846007922
:101290000003014328681152A03004713EBD0000D4
:1012A000780300204C03002070B508F0E7FA04F042
:1012B0007BFE05F0CFFEFFF787FE04F0F1F8184C37
:1012C00018492068184D4018811009202A6800022A
:1012D00010184167616889088167A1688908C1673A
:1012E00007F060FB0F202968C001228B081882815B
:1012F000628BC281A28BC280628C02812246203224
:10130000127882723B22520100208918087501F080
:101310005FFB03F07FFA0AF08BFD00F02BFE70BD3F
:10132000780300200000FCEF4C03002070B500257E
:10133000ED430BF055FB01282FD000231849032261
:10134000888BFF24401E10438A7F513462438218E9
:10135000088B282460431218488B302460431218ED
:101360000846203040782C24604310180D4A181885
:1013700084184869A0420ED11320C00184420AD9C2
:101380000D690BF02DFBC1B2284600F033FC00F0D4
:1013900063FD401B251A284670BDFF23B533CDE7FA
:1013A0007803002051190000F8B52C4F3C68206EDE
:1013B0005C34401C002814D0002529480023C07B41
:1013C00000283ED00926F6062648002D1CD0002114
:1013D0000A460B464169521C994204D1002902D0A9
:1013E00004E00125E9E7204B9A42F2D3216000692D
:1013F00060603069A1680002090E000A0906014315
:10140000A16000F033F81DE03169A2680902090A01
:10141000150E08D0018BC90712D0416921600069FF
:101420006060E37210E0881A00027D2300121B0343
:10143000984205DD100E00060843A06000F016F883
:10144000F8BD6360002DFBD003CC0EF02BFBFA201F
:101450000DF038FE39688862F8BD00004C030020AA
:101460009803002000001048881300000449002061
:1014700008610448012100686030C17170470000B4
:10148000000010484C03002010B506F0EDF910BD27
:1014900070B5234A00211068044640304176017639
:1014A00009231B02E01841700F2536200555084618
:1014B0001468E418E46C21541468E418E56C0446DC
:1014C000303429551468E418E56C04466034295515
:1014D0001468E418E56C04469034401CC0B22955E9
:1014E0002D28E5D31268D318D86C586204463034DE
:1014F0001C629030D8610B481446483401800921A1
:10150000417105238371C1710372428100F00CF8AF
:10151000FF2020706070A070E0701F20207170BDEF
:101520004C030020C000002010B5064801680648A2
:10153000406A002803D020220BF0EBF910BD0020F8
:10154000087010BD4C03002078030020F8B5069CFD
:101550001F4615460646002C13D0A06802220D3007
:1015600005F09DFCE81E82B23B460721204605F0AF
:10157000FFFDE580A068012E05D01D21017300202C
:10158000F8BD4720F8BD1B21F8E770B515460646A3
:10159000FFF79CFD0446082D0BD1052C09D13046E0
:1015A00007F02EFC002804D000894004800F00D0F2
:1015B0000024204670BD2423184204D0C81F0928E7
:1015C00003D82032D17100207047422070470000BC
:1015D000F1B5FFB001248BB0600205900027CC4824
:1015E00007970168CB48C94D081803908A980AAA42
:1015F0000005000D05A907F00FF90690002872D12B
:1016000004260AA805994218203AD27F0B2A23D033
:101610000026002004900AA88119022201A8029144
:1016200005F03DFC6846818809AB08AA039802F0E2
:1016300011FF012817D002287ED068468088854295
:1016400000D30546844200D920460446029880789B
:10165000012872D013363CE1491E761E36040591EE
:10166000360CCFD1D5E708980090002F66D10099AD
:1016700002222831029805F00EFC00281ED10098A5
:101680002030017B02988078814217D1012808D14F
:101690000098029902220830C91C05F0FCFB0028C2
:1016A00015D002988078022808D10098029910225B
:1016B0000830C91C05F0EFFB002808D00098008D09
:1016C000A84200D80546A04200D22046044602990E
:1016D0000AA88978012907D013360599B6B28E4237
:1016E00004D3012707E006E1761DF6E781190222FF
:1016F00001A805F0D4FB0399009808318E462FE02D
:1017000084466946026A8B8820300DE0918B9942AD
:1017100003D3012F7ED199427CD9A94200D80D462E
:10172000A14200D30C4612688242EFD104980028EF
:1017300004D16046006802E015E0BFE08AE0704531
:101740000ED0018D994203D3012F09D1994207D9B7
:101750008D4200D30D468C4200D80C46012F59D142
:101760007045CDD1BAE008980090002F72D1009951
:1017700002221C31029805F08EFB00281ED1009831
:101780002030C17802988078814217D1012808D191
:101790000098029902220830C91C05F07CFB002841
:1017A0001AD002988078022808D100980299102255
:1017B0000830C91C05F06FFB00280DD00098808B05
:1017C000A84200D80546A04200D22046044602980E
:1017D0008078012826D003E002988078012805D07F
:1017E00013360798B6B201281ED021E000984A4966
:1017F0000089884216D18A9800F076FE014600984A
:1018000000F052FD0099098C4843009989694018FD
:10181000022200E038E00299491D05F040FB01205A
:101820000790D4E7761DDCE7B61C0020B6B207901F
:101830000598864201D3012705E00AA881190222F2
:1018400001A805F02CFB039A009908320998096851
:10185000944630E01AE086466A46938820300DE0D0
:101860008A8B9A4203D3012F0ED19A420CD9AA42F5
:1018700000D81546A24200D3144609688142EFD130
:10188000049800282AD102E00120049026E0704646
:10189000006860450FD0028D016A9A4203D3012F80
:1018A00009D19A4207D9954200D31546944200D8EF
:1018B0001446012FE8D16045CDD10FE00298C078E1
:1018C000022805D102980079292801D1B61CB6B2A8
:1018D000761D0598B6B2864200D301270598811B74
:1018E000042902D3864200D293E604980028FBD153
:1018F000A54203D906987FB00CB0F0BD2246294618
:101900008A9803F05BFC0690F5E70000FFFF0000FB
:101910004C0300202C0700000229000070B515467A
:101920000C46064607F054FA20346179012D09D09F
:101930000A0702D54207920F0FD0CA0625D5020723
:1019400009D522E0CA0702D04207920F05D08A07C4
:1019500005D5020703D4082070BD052070BD4907D6
:1019600007D5C00709D0E179304607F0A5F95F280F
:1019700005D02079C00704D005E00F2070BD0C20F1
:1019800070BD022070BD002070BD890607D5C0075C
:10199000F3D0E179304607F08FF95F28EFD0207956
:1019A000810701D4022D07D0410701D4042D03D0B3
:1019B0000007E8D4082DE6D1032070BD10B5084813
:1019C0000649416107490723CA691202120A440401
:1019D0002243CA6100218161036110BD7E3E000087
:1019E00000E000E004ED00E010B505F099FC05F022
:1019F0005FFA0AF0F5FF012801D100F022F800F0AB
:101A0000D5F810BD052149074860704705214907F1
:101A10000968014201D0012070470020704710B5CD
:101A20000420FFF7F3FF002802D00420FFF7EAFFAD
:101A30000220FFF7EBFF002802D00220FFF7E2FFB1
:101A400010BD704700207047002101E000BF491C15
:101A50008142FBD370470000F0B58BB00E460746BD
:101A60001C2245A103A8FEF7AFFF684602F0D6FD91
:101A700009240125E406002F67D0442069468876B2
:101A80004448017A294301724C206946C8752020D8
:101A90000875B22048775B2008A908703E4A906A12
:101AA0003E49030C8B420AD108AFFB788F273B409D
:101AB00008AFFB70FB784007400E0343FB70506A91
:101AC000020C8A420AD16B465A7CCF231A406B46DD
:101AD0005A745A7C8007800E02435A742E4840384C
:101AE000006B020C8A4209D108AAD17889088900C2
:101AF000D170D1788007800F0143D1706946C87DCD
:101B0000FB2108406946C875487889780001084378
:101B1000122808D308A9C8780421084308A9C87066
:101B2000C878FFF70BFB03A8012180B20904401815
:101B3000E060E068C003FCD4694648788978000119
:101B40000843122801D307F04FFD1548018B0029E7
:101B5000FCD005831721818100210161002E06D070
:101B600020691021084022690A408242FBD00E49B8
:101B70000C4808600BB0F0BD023F00023E30023C52
:101B800020023B4C023A400239B202345B02350B70
:101B90000000000000002040C007001055AA00000F
:101BA00000001048CCBCECFC14000020F8B5104E2E
:101BB00030682030C57D002D19D0002409273F0250
:101BC00010E0E9070BD0C019016B582060430818DA
:101BD0004030417D204604F0E9FA002807D06D0826
:101BE000641CE4B23068AC21095CA142E9D8F8BDBC
:101BF0004C030020F3B581B01322D201012101A8CA
:101C000005F0D6F8914C04222060432101A805F08C
:101C1000CFF801252168ED0249198860042243218B
:101C200001A805F0C5F8216804224919C860FF2100
:101C3000843101A805F0BCF821680C224919844DB3
:101C40000861A97F01A80B3105F0B2F809262168C7
:101C5000360289194865A97F202201A805F0A8F855
:101C60002168102289194864A97F01A805F0A0F80D
:101C70002168282289198864052101A805F098F8AF
:101C80002168302289190865052101A805F090F81E
:101C90002168FF228919C8640132012101A805F0D9
:101CA00087F8216858228919C865A97F01A805F01D
:101CB0007FF82168202289190863A97F01A805F00F
:101CC00077F8216889194863AA8B012101A805F0DA
:101CD0006FF80F272168FF01C9190860298B282296
:101CE00001A805F065F807212268090251188867E4
:101CF000698B302201A805F05BF8072122680902F0
:101D00005118C8670C22012101A805F051F821687B
:101D10000C228919C862012101A805F049F821683F
:101D200028228919C96A88602846203000904178A5
:101D300001A805F03DF8216804228919C96A89685B
:101D400088600098417801A8491C05F031F82168A5
:101D500010228919C96A89684860A97F01A805F01D
:101D600027F821680222C919C867A97F01A805F0D0
:101D70001FF821680222C9194865A97F01A805F04A
:101D800017F821680222C9198865A97F01A805F002
:101D90000FF821680222C919C865A97F01A805F0BA
:101DA00007F821680122C9190866A97F01A8491C02
:101DB00004F0FEFF21681022C91988670B2101A8D1
:101DC00004F0F6FF072122680902511888610422F5
:101DD000802101A804F0ECFF216889198863029A28
:101DE000DC204243012101A8443204F0E1FF2168D4
:101DF0008919C863029AD8204243012101A82C32D4
:101E000004F0D6FF2168F02289190864012101A895
:101E100004F0CEFF0F4C7C222060A97F01A804F0C3
:101E2000C7FF21680822C867032101A804F0C0FF8A
:101E30002168282280310860012101A804F0B8FF40
:101E40002168803148600198FEBD00004C030020ED
:101E50007803002050030020704710B5C001000C2B
:101E600000F0E8F9002010BDFEB572B63F4D082322
:101E7000286801464030C2791A43C27162B6002018
:101E800001276C46FF0282005218D219526952880B
:101E90004300401CC0B2E2520328F4D372B6C81902
:101EA00000210668016062B6F00702D000200BF046
:101EB0002FF9B00702D501200BF02AF9700702D5DF
:101EC00002200BF025F9300702D503200BF020F992
:101ED000002623E00D281AD2211D254A8000125821
:101EE00020469047002812D072B62868F72240306A
:101EF000C1791140C17162B630E03A2807D21C495D
:101F0000231D8000E8390A58194620469047029858
:101F100029684018C019406921880180710068460D
:101F2000415AB00002902A688018C019406902889E
:101F3000920892001418028808348A420ED0A278BF
:101F400091070BD09107890F012901D1044608346C
:101F5000A0788008C006E078CFD5BBE7761CF6B243
:101F6000032EDBD30AF0CAFFFEBD00004C030020A5
:101F70002416051070B50AF0DBFF104C012520680F
:101F8000ED024019806840210AF09CFD2168491942
:101F90004861C86840210AF095FD216849198861A7
:101FA0000869FF2181310AF08DFD216808224B1953
:101FB000D8610021184604F076FF70BD4C03002064
:101FC000FEB50646294814460068294A8518C8887F
:101FD000032806D02346002202210420FEF7CAFE71
:101FE00042E08968022268460D3104F058FF3269E8
:101FF00090052ED468460188172903D35C20405BE6
:10200000172801D2172002E0814200D208467080D2
:10201000012040020243022032610190134837211F
:102020000068490141183788097B768801234907F0
:102030000FD5D9020830401824224069022108F047
:102040009DFB002805D08780C6800146019808F0D6
:1020500081FBA06803260673A068294602225C3132
:102060000D3004F01CFFE6800020FEBD4C03002074
:102070002C070000F7B590B000206A460D909082C2
:102080006A4A6B4B12680446D218CB88022B08D0E0
:10209000002218210420129BFEF76CFE002013B0D2
:1020A000F0BD8B6800205E7B0A900B9088883032F0
:1020B000019209900027019808F048FF054620E0AA
:1020C00028680890A9880998814219D1A968022234
:1020D00007A80D3104F0E3FE002F01D16846878B7D
:1020E0006846808B87420BD12946019808F07BFF18
:1020F000002028600A98002811D00B9805600B95E5
:10210000089D002DDCD1002FD4D1129819218068B0
:10211000017301211298012EC18002D081E00A953D
:10212000EDE702A90AA8FEF752FE002879D0694619
:102130000A891821129BFEF71DFE002671E08168B6
:102140000546022202A80D3104F0A9FE012E66D137
:102150006846008901F00AFB014668460EAA00891C
:1021600002F096F90E9C1099204600F09DF80D9013
:1021700055E02F68012E3FD1002F06D0B96802220A
:1021800005A80D3104F08BFE02E00020694688822C
:10219000A968022204A80F3104F081FEE8880D9995
:1021A000401F80B20090208CA269484369461018F5
:1021B000098A009A43180921284604F0E9FE2220E2
:1021C000005D012804D16846018A00980818E08360
:1021D00068460189808A81420ED0208C0D99A269BF
:1021E000484310180021019000911098E38B01885A
:1021F000A28B022008F0A4FC0A9908680A9000202B
:1022000008600A99002900D10B900121284604F0AA
:102210005BFF69460889898A884202D13D46002DC4
:10222000A7D10A9800288AD139E700004C03002082
:102230002C07000000B508490968084A914209D1F5
:102240004006010C06483F22028181611121018074
:1022500000F022F800BD000014000020CCBCECFC13
:102260000000104000B5094A1268094B9A420BD190
:10227000084A3F231381800890610648403001607E
:102280003320108000F008F800BD0000140000208A
:10229000CCBCECFC000010400248018AC907FCD00D
:1022A000704700000000104030B5024623239B5CBD
:1022B0000020012B1AD112890D4B9A4216D10D4ADA
:1022C000092312681B02D318A0325B6B127B0AE051
:1022D00045010C885D5B24052D05240D2D0DAC42B8
:1022E00004D0401CC0B28242F2D8002030BD0000B1
:1022F000022900004C030020F7B578480F4600681B
:10230000774988B04418F888072804D200220621AB
:1023100004200A9B2AE0B968022268460D3104F0C5
:10232000BEFDB968022201A80F3104F0B8FDB968FA
:10233000022204A8113104F0B2FDF888C01F80B257
:10234000039068460288808882420CD8002A0AD00E
:102350000898002142880A9805F010F8002808D053
:1023600045200BB0F0BD062101200A9BFEF702FDBF
:10237000ABE00A98072180680834017301216846A0
:1023800001810594008801F0F1F905007CD086E018
:102390006846008A0522D202904202D0521C904226
:1023A00026D168460088814278D329460B2208311D
:1023B0003846039B04F082FE69466A8D098A8A4288
:1023C0006CD10399022901D0102967D1002865D169
:1023D0002A462846296A28322030814202D06B6A78
:1023E0001C3300E0134602A90A98FEF7D6FC55E01C
:1023F0002E462C6A2036B4424ED14FE06946A08B5F
:102400000988884247D369468988884257D823205B
:10241000005D01283FD120460899FFF745FF218C38
:10242000A269414351180B223846039B04F046FE33
:10243000069008980122008821460005000DFEF74D
:1024400045FE01466A462089128A904223D100291E
:1024500021D1E28B03998A421DD1069900291AD114
:1024600008996A4649881289891A042927D322467D
:102470001C491C32884208D12068B04205D000892E
:10248000884202D02468F7E719E023461C3302A9EA
:102490000A98FEF782FC2468B442AFD12D680598F3
:1024A00085420CD06846298D8088814207D80898DB
:1024B0006A4640881289801A042800D368E7684673
:1024C0000089012803D90A99C880002049E7684695
:1024D000028806210A200A9B48E700004C030020DE
:1024E0002C0700000328000010B50D4900050B68FB
:1024F0000921090259184A6B0021000DA0331B7BEA
:102500000AE04C01145B2405240D844202D14801E9
:10251000801810BD491CC9B28B42F2D8002010BDF2
:102520004C030020FFB589B0002405460794D088ED
:102530001646052804D00022042108460C9B20E002
:10254000B168022208A80D3104F0A9FCB16802228A
:1025500068460F3104F0A3FC6846028C0088824272
:102560000CD8002A0AD00A98002142880C9804F05E
:1025700005FF002808D045200DB0F0BD0421012042
:102580000C9BFEF7F7FBB9E06846008C01F0EEF813
:10259000060076D0083504950498864272D06946C4
:1025A000308D098C884230D36946098888422CD8FE
:1025B000002C0AD1012107910C9805218068022482
:1025C00001730C980799806841730A984088001B32
:1025D000042857D30798012854D1201D81B23346CF
:1025E000283302220C9804F0C3FDA01D81B23346AB
:1025F0002A330222A41C0C9804F0BAFD6946A41CDC
:10260000308D0988A4B2884274D03746356A2037A5
:10261000BD42C1D060E06946A88B098C88425AD37C
:1026200069460988884265D8002C36D02320415D50
:102630000798814260D10A984088001B042802D381
:102640000799012904D0122856D30798022853D19C
:10265000201D81B22B461C3302220C9804F088FD09
:10266000A41C0798A4B201280DD0201D81B22B46CE
:10267000083310220C9804F07BFD2046103084B201
:1026800029E03DE036E0201D81B22B4608330222CE
:102690000C9804F06DFDA01CF1E72320415D07912B
:1026A0000C9805218068022201730C9807998068B4
:1026B00041730C98294680681C310E3004F0EFFB02
:1026C000079901290CD02B460833102208210C98B9
:1026D00004F04EFD14242D68BD429CD136685BE7A2
:1026E0000C982946806802220831103004F0D7FB8C
:1026F0000624F0E7002C03D00C98C48000203BE7B0
:102700006846028C04210A200C9B3AE706490922FC
:102710000968120289188008496B4001081801886D
:10272000002900D1002070474C03002070B50C46F2
:102730000B4E81000B4832680D1801232032D377ED
:1027400021462846FFF78EFD28680021844201D1EA
:10275000084600E0FB2032682032D17770BD0000CF
:102760004C0300200000041038B5184A14682246B3
:10277000BA32AE34A378DD0701D001290AD05B0755
:102780000CD501290AD0217949070BD5E17A002916
:1027900005D007E0E07880210843E07038BD0121D2
:1027A000E172508020794106090FF7D07821084066
:1027B00069460870002048706A460221422008F0ED
:1027C000DDF8207987210840207138BD4C030020B6
:1027D00070470000FFB50C4678A103C995B0019180
:1027E0000090002108A801730321C90268464186B0
:1027F000012108A8734E017435681746AE3502F002
:1028000049FC002808D170493068401801F0C2FE28
:10281000A878002802D0462019B0F0BD0BA8159961
:1028200000F0B2FA0028F7D1072010A90871012C96
:1028300005D0022C0AD0002C0ED04220ECE708A8CC
:10284000017B1020014308A8017305E011A90BA822
:1028500000F0A9FA0028DFD110A8027901230CA901
:10286000284600F0BDFE00287ED102222946189895
:1028700004F015FB298868468181152149020182EF
:102880000784012686734E2108A881700024C47035
:10289000067107214171867103A902A800F056FC58
:1028A000002861D1022202A91E9804F0F8FA082F2C
:1028B00002D26846478502E0082069464885694695
:1028C0000C850B4628880AAA098901F0C7FB002855
:1028D0006DD13E49684601820227078408A88471A9
:1028E00003A902A800F032FC002860D1022202A94C
:1028F0001F9804F0D4FA68460470694644704F8506
:102900000B4628880AAA098901F0A8FB00284ED1A5
:1029100008A8007BC00723D02C496846C91C018247
:102920000821018408A88770047103A902A800F097
:102930000DFC00283BD1FF216846C1718171C17037
:1029400081704170017044710471694608204885A6
:102950000B4628880AAA098901F080FB002826D1A5
:1029600008A8007B800600E021E022D5298868467F
:1029700081811649A53101820684867308A8877073
:10298000C470047107214171847103A902A800F089
:10299000DDFB00280BD169460E700C854E850B4679
:1029A00028880AAA098901F059FB002801D047208C
:1029B00032E708A8007BA87000202DE7626C7565DF
:1029C0006E7267214C030020EF060000012A000010
:1029D000034800210068AE30C1708170704700006C
:1029E0004C03002038B50246174801240068AE3079
:1029F000022A1FD0052A03D0072A07D00B2A20D18C
:102A0000084609794088FFF7AFFE1AE000790024F4
:102A1000020600D50124820703D1C20601D4800634
:102A20000FD5084600216A461170694607F0D8FBA9
:102A3000044606E08178490703D50179FB2211405D
:102A40000171204638BD00004C03002010B5094834
:102A50000468AE34E07880070BD5002003F0E6F878
:102A6000022007F031FFE07801210843FD210840F2
:102A7000E07010BD4C0300200FB410B5079C012876
:102A80002DD1684680891749884210D103A80FC804
:102A900000F0AEF900281DD105F0D4FDFA281ED0B3
:102AA00001281CD92078F3210840207017E00D4937
:102AB000491C884208D0C91E884205D0491C88425A
:102AC00002D0C91C88420AD103AC0FCC00F090F9A7
:102AD000002800D0632010BC08BC04B018470020B8
:102AE000F9E70000022A0000FFB5074673480D46CB
:102AF00004688FB0AE34A1781E46C80602D5E078CF
:102B0000C0067DD4880607D5E0788006800F03D004
:102B1000022F01D0002E73D08806800F06D0022F1E
:102B200008D0032F06D0002E6AD003E0012F01D079
:102B3000002FF8D1880603D4002D01D0012D5FD1DC
:102B4000002E06D130200140384602F04DFF00280B
:102B500056D1119900200870A17889068A0F7DD07E
:102B60000CA908A803F0D4F907900DA90AA803F04E
:102B7000FBF906900798002802D00698002801D19A
:102B8000012E58D1022F04A807D001F0A9FC002E75
:102B90003CD00798002803D012E006F022FBF6E7AD
:102BA000464F47483B68062208A9181804F073F9F5
:102BB0000028386808D04030417E490849004176F5
:102BC0000698002805D014E04030417E01221143D0
:102BD000F5E73A4F3A483B6806220AA9181804F06C
:102BE0005AF9002838680CD04030417EFD2211404F
:102BF00041760798002809D00698002806D01AE0E8
:102C000043E04030417E02221143F1E72B48062287
:102C100003682B4804A9181804F041F905206946F7
:102C20000873002E02D1084606F01CFF25480290CA
:102C3000684606F0CBFEA078800611D511980321D6
:102C400001702079C10603D5002D01D0022D1CD1C1
:102C5000800605D5012D03D0032D00E018E014D126
:102C6000A078C00627D51199012008702079C106E7
:102C700001D5002D09D1810601D5012D05D1000610
:102C800019D5002D17D0012D15D0422013B0F0BD5D
:102C9000012F01D1002E03D0890F314309D00AE062
:102CA0000648062203680648611D181804F0F7F864
:102CB0000120119908700020E8E700004C03002073
:102CC000EF060000A0BB0D003EB509F01BFF044657
:102CD00009F0A4FF082C01D1082813D00A480B4999
:102CE000006806224118684604F0D9F86846407921
:102CF000400601D5022000E00320012302AA0021A2
:102D0000FFF7F2FE3EBD00004C030020EF0600007E
:102D10001FB50E480468AE34E078010612D5A178DC
:102D2000C9070CD0800708D5042069460873684697
:102D300006F098FE022007F0C7FD0020E070400674
:102D4000400EE07000F02EF81FBD00004C03002084
:102D5000F0B58DB00C4616A9E0C900210891099183
:102D60000A910B911599049105A9E0C112A962C9B4
:102D700000930191134601460396029522460120D5
:102D800007F028FB0DB0F0BD0A07920F01D04220DA
:102D900070478A07FBD002788907890F0A430270BF
:102DA00000207047704742207047000010B504466D
:102DB000022000F051F80D480021026809200002AD
:102DC0001018A032436B107B05E04A019A5A002A82
:102DD00004D0491CC9B28842F7D810BD48011C5222
:102DE000C018026904210A43026110BD4C0300208F
:102DF0001FB582B0002401F0B7FB694601F058FB13
:102E0000009A6846116A0089203209E023235B5C3E
:102E1000012B04D10B89834201D1641CE4B20968FF
:102E20009142F3D1204606B010BD000010B5044613
:102E30000146042002F06AFC002808D00448054935
:102E40000068401821463C3008F0B0F8432010BD1F
:102E50004C0300202C07000004490A683B2149016B
:102E600051180A7D02430A75704700004C03002088
:102E700000B51138C0B2FFF749FC002804D0012288
:102E8000016952051143016100BD01218907886272
:102E90007047012292070029D16901D0014300E067
:102EA0008143D161704701218907496A014201D0FC
:102EB000012070470020704710B5012464032046AC
:102EC000FFF7F1FF00280AD000212046FFF7E1FFBD
:102ED0002046FFF7DAFF01212046FFF7DAFF10BD99
:102EE000F0B5027901239B070168002A02D0062A67
:102EF00003D006E05C688C4302E05C6800220C436F
:102F00005C6000210F240568CD40ED07ED0F37D040
:102F1000082909D2DE6A8D002746AF40BE43174616
:102F2000AF403E43DE622BE00D46083D082D0AD23D
:102F30008D002646203D1F6BAE40B7431646AE407F
:102F400037431F631CE00D46103D082D0AD28D004B
:102F50002646403D5F6BAE40B7431646AE40374312
:102F60005F630DE017290BD9114E8D002746603D98
:102F7000368BAF40BE431746AF400D4D3E432E83C8
:102F8000491CC9B21A29BED341790129D9680268FE
:102F900009D09143D960817901299968006804D0EA
:102FA00081439960F0BD1143F4E70143F9E7000064
:102FB0002000004000210160017181714171704762
:102FC000012902D003490860704701218907C863BD
:102FD000704700004000004003480068AE30807831
:102FE0008006800F704700004C030020F3B597B0B7
:102FF0000D8848880590081D1DC80DAE1DC68C8A19
:10300000CE8A087E1390C86920310190087800901C
:103010004878049088780390C87802900F7900F07F
:103020004BFD002817D10120400284425FD8B442F2
:103030005DD8002F01D1B44259D114A9284601F01E
:1030400037FA002806D115AA1499059801F020FA3C
:10305000002802D0602019B0F0BD149D11A92846A7
:10306000183003F037FC10A88088002810D02846BC
:1030700012A9203003F02EFC10A8838800892A8D25
:103080001818696A10188A8B904203D16120E2E710
:103090004820E0E715982C4B02899A4227D1232239
:1030A000125C012A23D10068006816901398012849
:1030B0001FD16846808E29221202801A030007F071
:1030C000DEF80604180404070A18022C0FD110E0D9
:1030D000072C0CD10DE0042C09D3E00707D1012FF8
:1030E00007D1A64203D3042E01D3F00701D042201A
:1030F000B1E702980B90039B049A0A9309920098F7
:10310000019A0C9708900696059407920DA81DC881
:10311000019002A81CC013980B4600902A461699ED
:10312000179800F0B1F9002895D168460649808EBD
:10313000FF31884205D01798018800200A4602F026
:103140003DF8002087E7000003280000F3B5A5B094
:1031500008881A9088780C4611901022091D13A82F
:10316000FDF732FCA08A1090A17D68460172E07DD7
:103170000F90207E2090677EA07E1F900020064644
:103180000146129020A801810F20BB4C2390BB491F
:1031900020684018199000F08FFC00280BD1012105
:1031A0001098490288425FD821A91A9801F080F945
:1031B000002802D0602027B0F0BD2198179001F0C0
:1031C000D3F91A9988420CD102A801901698009060
:1031D00013AD0ECD1198FFF74FFC002801D06320EE
:1031E000E9E76846017A8806800F05D00120129031
:1031F0002068A030007B4600C80703D01298401C0E
:10320000B61C1290080603D51298401CB61C1290EA
:1032100017980DA918301D9003F05CFB6846129CAE
:10322000808EA41CA04237D317980EA9203001909D
:1032300003F050FB6846018F00290DD01798179AAC
:103240006B46406A9B8E128D5918808B5118081A54
:10325000A04201D26120AEE71798846911982568D1
:10326000012803D0022803D04220A4E7052000E073
:103270001320E0832A4639460F98FEF79CF942282E
:1032800099D0199FE28B4037788B398B411A10986F
:1032900010188019814201DA48208CE70EA90198A4
:1032A00003F018FB6846008F0028179802D0406A88
:1032B000808B00E0008D2599401C08802598012115
:1032C0000088A083259802220088401CA8836C48AF
:1032D0002081204620301790C170002181708171BB
:1032E0001998398B406D40186946A061097A0170C0
:1032F000A06929461C31401C03F0D1FD119801281A
:10330000A0697DD0102213A9C01C03F0C8FD284677
:10331000102213A9083003F0C2FD388B1330388314
:103320002E4620361198F0701098E8831F98B070E0
:1033300010982084109828841998398B406D401873
:10334000A8610021109A03F0AEFD398B109808187F
:10335000388317990120087117990020487130713E
:103360006846007A810701D50121317101070227E2
:10337000002902DA317939433171410703D53179B6
:10338000042211433171400603D5307908210843E6
:1033900030710F9870712098B07121461D9803F01C
:1033A000C2FA2146019803F09FFA29461D9803F0BE
:1033B000BAFA2946019803F097FA1298002841D0EA
:1033C00068461A998181A18BC181078447840124B1
:1033D00008A8047122A80A9008A88473239941734D
:1033E0000F993820014008A801730721C1730025F7
:1033F00005746846007AC00708D02248694600E094
:103400002BE0088203A924A8FFF7F0FD6846007AA4
:103410008006800F07D01B486946401E088203A91A
:1034200024A8FFF7E3FD6846007A00060AD52921A3
:1034300009026846018208A84473057303A924A8F9
:10344000FFF7D4FD259801881298401C081882B215
:10345000002001F0B3FE0020ADE6022213A9C01C3B
:1034600003F01DFD2846022213A9083003F017FDC2
:10347000388B401D53E700004C0300202C07000050
:103480000328000003290000FFB55248524A006893
:1034900087B08218069210AA109B0126169F928868
:1034A000012B04D14D4B9A4201D1A030067B069DE1
:1034B00034464035688B2B8B7C43C31A09982030E7
:1034C0000390A34222DA48200BB0F0BD2320405CD9
:1034D000012819D108896C46208098420CD03F4CB5
:1034E000641EA04208D0641CA04205D0641CA04207
:1034F00002D0A41CA04207D1384CFF3CA04201D00E
:10350000904201D16220DFE7096801E029231B0214
:1035100003988142DAD109981B9984691898224648
:10352000FEF749F84228CFD01C98012804D11598FD
:10353000874201D24220C7E71598E0832046203019
:103540001C990590817027840A98808B401CA08369
:103550001098012814D02046102211A9083003F039
:103560009EFC05991098C8700698298B406D4018EC
:10357000A061298B384670430818288300250FE086
:1035800011A80FC808340FC4183CEAE72846A169FF
:1035900078430818159A179903F081FC6D1CEDB259
:1035A000B542F3D30599189848710599199808718F
:1035B00005991A98887109982146183003F0B3F9D3
:1035C0002146039803F090F90798A18B0180002011
:1035D0007AE700004C0300202C07000002290000BD
:1035E000FFB58FB014460E78102205A8891CFDF790
:1035F000EBF94F484F490068451800F05DFA002884
:103600001ED1002C57D0012E09D16846808A4A4924
:10361000884204D12846A968083081424BD1284607
:10362000103029690390814209D00AA9284603F085
:1036300051F96846018D601E0D90814202D24820EA
:1036400013B0F0BD284608300CA9049003F042F9ED
:103650006846008E002814D0EF680AA93846183052
:1036600003F038F9384620300CA903F033F96846E6
:10367000398D008D09186846008E401C081887B2E5
:1036800000E0012701200004C01BA04201D26120FC
:10369000D6E72C69286801901298012802D00228E8
:1036A00003D008E00520C00200E024486085012E18
:1036B00003D0022E05D04220C2E720460830022265
:1036C00002E020460830102205A903F0E8FB20465E
:1036D00031462030064601730F9821460780278522
:1036E000039803F020F92146049803F0FDF82746DB
:1036F0001837E7616662A76126620D9884B20BE015
:103700002846019903F00FF93846019903F0ECF8C7
:103710002868641EA4B20190002CF1D10F98018892
:103720000D98081882B2002001F048FD002087E7BC
:103730004C0300202C0700000118000001280000A5
:10374000024608480849006841188868083103E0C3
:10375000038D934202D200688842F9D1884200D199
:10376000002070474C0300202C070000034610B5D2
:103770000E480F49006841188868083103E0148D2D
:103780009C4203D8104602688A42F8D18A420CD182
:10379000018D994209D20146026A20318A4203D042
:1037A000416A898B994200D2002010BD4C03002051
:1037B0002C070000024610B50B48120501680920CD
:1037C00000020818436B0020120DA031097B07E0AE
:1037D00044011C5B2405240D944203D0401CC0B25C
:1037E0008142F5D810BD00004C030020F7B5054616
:1037F0001746019807F0AAFB2E050446360D0CE08B
:10380000A0882568B04207D12146019807F0EBFB5C
:103810003946204603F058FC2C46002CF0D1FEBD62
:10382000F0B58BB000206349029063480A68141811
:1038300072B610464030C57902231D43C57162B689
:1038400025464035287AC0077DD00920000210188F
:103850000026476B49E071017A5A002A43D0C91902
:10386000069109694A021ED48A0226D502210491D2
:103870000699012309880905090D0391372149019A
:103880004118097B89070ED5D90208304018232238
:103890004069022106F072FF010004D0039A8A8079
:1038A000049806F057FF069800880090069800F0EC
:1038B00085F8009805F07EFA15E0480713D50698BC
:1038C00000880005000D05F007FA002805D10698CC
:1038D00000880005000DFDF77BFE069904200969AC
:1038E000814306980161761CF6B23248AC2100682B
:1038F000095CB142AFD803F001FF204624300646F0
:1039000007F06AFB012802D0012003F0FBFD2046EE
:10391000183007F061FB012802D0002003F0F2FD0F
:103920003C34204607F058FB01280FD002A920465E
:1039300007F07BFB0420029901F0E8FE0028F0D09C
:103940002046029900E032E007F01DFB287A0006CD
:103950002DD5304607F040FB012828D1002003F088
:1039600033FBA98B23314909491CC9B2FDF704F87F
:1039700000281CD00F4D044628680123D9020830C6
:103980004018422638224069314606F0F7FE010011
:103990000DD000228A80CC80304606F0DBFE3B2131
:1039A0002A68490151180A7D802082430A750BB0AC
:1039B000F0BD00004C0300202C070000F0B50446C9
:1039C0003B483C49006885B04518218A890419D5CF
:1039D00002210491372149014118897B412627881A
:1039E0000123C9070ED0D90208304018312240699E
:1039F000022106F0C3FE010004D08F808E7104986E
:103A000006F0A8FE2946208801221831FFF7EEFEB5
:103A10002946208801223031FFF7E8FE2946208818
:103A200001222431FFF7E2FE2946208800223C31A2
:103A3000FFF7DCFE20880005000DFFF7BBFE8500C8
:103A4000294611316846017306F00CF829461231F7
:103A50006846017306F006F829461331684601737B
:103A600006F000F868461435057305F0FBFF208862
:103A700000F03CFA208801050D48090D0268252058
:103A800080011018028B914201D100210183E0696D
:103A9000002802D0012103F017FB2022002120463C
:103AA000A56803F000FA1720A560608005B0F0BD9E
:103AB0004C0300202C07000010B50B480B49006890
:103AC00044184034207AC00709D0002003F07CFA63
:103AD000217A890701D5002803D0002010BD472096
:103AE00010BD642010BD00004C0300202C07000016
:103AF000F0B55FA099B000685E4915905E4A08680D
:103B00008418092212028218526B254640351492FD
:103B10002A7AD20702D0622019B0F0BDAA8B012305
:103B20005B029A4201D9AB8303E0172A01D2172224
:103B3000AA83149AA0301392067B0DE0761EF6B28B
:103B4000139871010F18B8680F9038462022002191
:103B500003F0A9F90F98B860002EEFD12046083085
:103B6000E0606460A06024600830139060612061B0
:103B7000FF220021083007F0FEF92046FF22002135
:103B8000243007F0F8F92046AA7F0021303007F0F2
:103B9000F2F92046FF2200213C3007F0ECF9002228
:103BA0002A7210461721334B05E0149E4701BE19B7
:103BB000401C7180C0B21E68A036367B8642F4D8A5
:103BC000002028832F8C688C0026149008E0282081
:103BD000E16C70430918204602F086FE761CB6B2EE
:103BE000BE42F4D3002608E03020216D704309184E
:103BF000139802F079FE761CB6B214988642F3D37D
:103C00000120FFF729F90124684604701B4941800F
:103C10002346042269460CA8FFF7E2FC002822D1C3
:103C20006846018E818216490183042606858475C3
:103C3000202108A881720024C472047307214173F3
:103C4000847305A90DA8FFF781FA00280BD16846F7
:103C500004874687818E15AB0EAA008E00F0FEF910
:103C6000002800D158E700202872472054E70000C0
:103C70000000FFFF4C0300202C070000011800008B
:103C8000052A0000F8B5044683480E4600688349BB
:103C900047184820C05DC0076FD0B088FEF724FCED
:103CA0000546012C02D0002C68D0F3E0002D04D092
:103CB0002869410703D54520F8BD0121C7E0B26856
:103CC000F188147B0029F0D062060AD56888884202
:103CD000F3D3D22C01D0522CEFD1384631461830D4
:103CE00048E0A106890E1E2949D81E2C20D10107C3
:103CF0001ED50821884328612988012005F0AAFCE7
:103D00000121304603F0E0F9634801230068D9023D
:103D10000830401842242D8839224069214606F097
:103D20002DFD010003D08D80204606F013FDB1E08B
:103D3000E1070BD01D2C1AD01B2C18D0410533D411
:103D4000012189020843EE612861A3E0C00606D57F
:103D50002B4602220321422007F070F8ADE72988A4
:103D6000002005F065FC29691020014329613846CF
:103D70003146243007F01AF98CE015E016E0298866
:103D80002022002003F044F905000DD00121304627
:103D900003F09AF92B46002221460620FCF7EAFFA1
:103DA0002846FFF743F875E04120F8BDB068047B72
:103DB0001D2C3CD01B2C43D00021304603F084F94D
:103DC000002D67D0032C46D0052C44D0072C42D0C0
:103DD000092C40D00B2C3ED00D2C3CD00F2C3AD0CF
:103DE000112C38D0132C36D0172C34D0192C32D0BB
:103DF000012C30D0022C35D0042C33D0062C31D0FD
:103E0000082C2FD00A2C2DD00C2C2BD00E2C29D0E6
:103E1000102C27D0122C25D0162C23D0182C21D0D2
:103E2000522C1FD0D22C1DD01E2C2FD032E0002DB2
:103E300003D02988012005F0FBFB3146022001E078
:103E40003146012005F082FB002823D000213046B6
:103E500003F03AF91EE0296910208143296129887D
:103E6000002015E02869402188432861010511D50B
:103E7000FF210131084328612988022005F0D8FB81
:103E800001202969C0028143296103E029880320B8
:103E900005F0E0FB0020F8BD4C0300202C070000DB
:103EA00010B5104A104B1268D2184032127AD2075D
:103EB00006D002280AD0052804D00B2810D101E032
:103EC000412010BD4888FEF771FF09E04888FEF7E1
:103ED0000BFB002804D00122016992051143016106
:103EE000002010BD4C0300202C070000F1B5FFB0EE
:103EF00085B0472001900020694608805348544906
:103F0000006847188498FEF7EFFA0290002874D0F2
:103F1000B96808374FE0684600880D4604AC2018A1
:103F20006B46022228310DF048F968460088294680
:103F300020186B4601222C310DF03FF92E46203619
:103F4000307B69460128098804A809D040186B46CF
:103F50001022294608310DF030F901902C6A27E033
:103F600040186B460222F4E76946098804A8401805
:103F700021466B4602221C310DF01FF96946098863
:103F800004A8401821466B46012223310DF015F993
:103F90002320005D69460128098804A830D0401814
:103FA00021466B46102208310DF007F90190246874
:103FB000B442D9D12968B942ADD1019800281CD1A9
:103FC0006846008881070AD0224A011D11406A46CE
:103FD00011800A1A04A908180B2102F064FF029844
:103FE000008804F079FE002807D18498694600050E
:103FF000000D04AA098804F047FB7FB006B0F0BDAD
:10400000401821466B46022208310DF0D6F8019087
:10401000208911498842CAD120460299FEF744F905
:104020004000A16903906A460918128804A8801804
:104030006B4602220DF0C1F80190A169039802229B
:104040000818002102F02FFFB1E700004C03002008
:104050002C070000FCFF000002290000F0B5074615
:1040600017480E4600683B2149014018007D85B085
:104070001D461446C00706D003A9384600F018FABA
:1040800000280AD102E0472005B0F0BD04AA30465E
:10409000039900F0FDF9002801D06020F4E70499AD
:1040A000228860880968002A00D0088C32466E4653
:1040B00031C603233946002000F004F8E4E700008D
:1040C0004C030020FFB5002099B0239A0B9012906A
:1040D00005461490064615901C46DB480B460068C2
:1040E000DA49229F411803910021089109915188D2
:1040F000069111880A913B2149014018007DC007B3
:1041000006D00FA9184600F0D3F900280AD102E022
:1041100047201DB0F0BD10AA0F991B9800F0B8F908
:10412000002801D06020F4E71998002803D0600728
:1041300001D5012000E000201390A007800F1C9003
:10414000109817902030C078012840D11798C04BA4
:1041500001899942F9D11798069904680A98228C26
:104160004118914233D8204620301690807801289B
:1041700016D0E08B04901798806900788006800F35
:104180007ED0039840301890007A800778D51C982C
:104190000028F5D0AE4F0F99FF372031206814E08A
:1041A000BA4214D3B942DDD80497E4E70389A84A98
:1041B000934203D12322125C012A08D0BB4203D1CF
:1041C0002322125C012A03D000688842EED134E138
:1041D00005900028FBD09C4809210268090251186B
:1041E000496B0027009162E0780100990390085A1A
:1041F00001055AD01999002901D0884255D1059955
:104200007A008B69511C595C9A5C0902891889B241
:104210000D91890749D002220599FCF757FF002824
:1042200004D01998002840D0652072E7002008A922
:10423000C8551C98C00718D0179880690078C00628
:1042400013D50D98C00710D00120C8550543009A1A
:10425000039880184088159A904206D91590009AC4
:104260000398105A0005000D14901C9880071CD567
:10427000179880690078800617D50D98800700E0B0
:1042800083E012D50220CA5D05430243CA55009956
:104290000398401840881599884206D915900099CE
:1042A0000398085A0005000D14907F1CFFB2664861
:1042B0000068A030037BBB4296D8002D65D01898CB
:1042C000007A00065FD460480168092000020818DF
:1042D000416B00201BE042018E5A360515D0AE0717
:1042E0000BD556183669B7070DD408AF3F5CBF072A
:1042F00003D5360701D546200BE7EE0705D0521847
:10430000127CD20701D0432003E7401CC0B2834295
:10431000E1D81598C01E86B20498864200D9064698
:10432000A8070FD520220020149902F071FE1290E8
:1043300000287DD0F01C82B20021129803F017F8FB
:10434000002811D1E80720D020220020149902F083
:104350005FFE0B90002807D0F01C82B200210B9862
:1043600003F005F8002810D08020FEF775FD1298A4
:10437000002802D0002102F0A7FE0B98002802D0EE
:10438000002102F0A1FE6420C3E6A1690A98069A02
:104390000818249902F083FD16988078012801D12D
:1043A0000498E083002D46D0274B092019680002AD
:1043B0000818416B002008AA0CE04301CF5A3F05C2
:1043C00006D05F18BC463B69175C3B4367463B61C0
:1043D000401CC0B21C4B1B68A0331B7B8342ECD833
:1043E000A8070DD512980090F01C82B221461C310E
:1043F0000220A369FDF7AAF80220129905F0A6F899
:10440000E80718D00B980090F61C2146B2B21C3178
:104410000120A369FDF79AF81398002805D00B989E
:104420008021C07C08430B99C87401200B9900E0DF
:1044300005E005F08BF800206BE6422069E680205D
:10444000FEF70AFD9FE700004C0300202C07000048
:1044500003280000F0B58468083015E0258D8D42F2
:1044600003D1146018600120F0BD26461C60203680
:10447000256A06E0AF8B8F4202D102201560F0BDA5
:104480002D68B542F6D124688442E7D10020F0BD02
:1044900010B50B6A203106E09C8B844202D10020CB
:1044A000136010BD1B688B42F6D1412010BD000087
:1044B00010B5094A094B1268D2189368083206E011
:1044C0001C8D844202D100200B6010BD1B689342FA
:1044D000F6D1412010BD00004C0300202C07000045
:1044E000F8B5204E04463568AE3500F015FD207055
:1044F000000A607000F010FDA070000AE07000F08B
:104500000BFDC2B28004830E227100216371084644
:10451000275C401C7918C0B289B20628F8D300295C
:10452000E3D02078FF280CD16078FF2809D1A0784B
:10453000FF2806D1E078FF2803D1FF2A01D1FF2B05
:10454000D3D00622691D204602F0A5FC0028CCD05D
:10455000316806222046783102F09DFC0028C4D044
:10456000F8BD00004C03002002480068AE3000880F
:10457000704700004C030020002803D0012803D01E
:10458000022804D0082070470120800370470120D2
:104590007047000010B5034906220968B33102F0E4
:1045A0007EFC10BD4C030020F7B5164600241CE02D
:1045B00000981149001940188108019889000019D4
:1045C00042780578120215438278C07812040006FA
:1045D00002430948154340420F1829463846FDF763
:1045E00041FE3868854204D1241DB442E0D3002046
:1045F000FEBDFB20FEBD00000000FCEFF0B50E4646
:104600000746002407E03D1900F086FC2870000AE8
:104610006870A41CE4B2B442F5D3F0BD30B5124AC0
:10462000114C283A114BD1690906090F4170D26922
:104630001207120F827022680D4D01244260AA42B7
:1046400008D11A680B4B9A4201D1042200E00222E1
:10465000027000E00470002900D144700649898A84
:10466000491C8900816030BD280090401C0000106A
:1046700041A0000244A000F20000104010B5012843
:1046800018D8072916D80C4A126813462033187711
:1046900059778007C906000E090E01430020074B19
:1046A000A03204E08401E418A172401CC0B2147B63
:1046B0008442F7D8002010BD4C03002000010020E8
:1046C000074A914202DC5242914200DA1146FF222F
:1046D000993251430A1251180A1451180818704798
:1046E000FFFF4F0010B50920C00600690002000A54
:1046F00005F0E4F910BD7047F0B5444F0446386842
:1047000085B0783016460D46002C19D0062C11D0F5
:10471000082C0CD0182C0AD0282C0BD02A2C09D00D
:104720002C2C0AD02E2C0BD0D02C42D043E0102DB4
:1047300008D040E0022D05D03DE0012D02D03AE046
:10474000062D38D10A460019314602F0A8FB2C2C60
:1047500028D13078002825D008F042F9012824D04B
:104760001B201F304009401C41004118012002F06D
:1047700019FC08F035F9012819D01B201F30400919
:104780004100411822484078401AC01EC1B20020A2
:1047900002F008FC38684022403001781143F922C9
:1047A00011400170002005B0F0BDFB20D9E7FB20CF
:1047B000E4E7012D04D008F013F9012804D007E044
:1047C000107804F0ABFCEEE7D12C01D1082D01D01C
:1047D0001220E8E702223146684602F060FB02221E
:1047E000B11C01A802F05BFB0222311D02A802F0FD
:1047F00056FB0222B11D03A802F051FB68468389D3
:104800000289818800880AF09CF9CCE74C030020DB
:104810009803002070B51C4C1B21206889014118A9
:1048200000260E76194B4E760622FF21C01802F0A4
:104830003AFB372520686D01401906702021417030
:1048400008F0CEF801281CD01F2021680F4B491911
:1048500088702068093307220021C01802F023FB6A
:104860000A4B206810330522FF21C01802F01BFB01
:10487000DF232068DB00FF220021C01806F07BFB4D
:1048800070BD5F20E1E700004C030020DA06000065
:1048900038B504466B460122202100F0EDF80028CF
:1048A0000DD16946087880210843694608706B4637
:1048B00001222021204600F009FB002800D0012021
:1048C00038BD0000F3B583B06B4602223021039857
:1048D00000F0D2F8002823D1684600786B464508DE
:1048E00068464078022246083621039800F0C4F852
:1048F000002815D1684600886B4604B202223A218E
:10490000039800F0B9F800280AD1684600886B4681
:1049100007B202222821039800F0AEF8002802D046
:10492000012005B0F0BD6846008800B2029028461C
:10493000FCF768F90190381BFCF764F90746701B17
:10494000FCF760F905460298001BFCF75BF9294665
:10495000FCF7DDF83946FCF717F90199FCF77EF80A
:104960000A49FCF7D4F80A49884202DD7D20C000DC
:1049700008E0FF21C905C84201D3002002E0FCF78E
:1049800065F980B2049908800020CAE70000204140
:1049900000007A4470B50C460546114600F00AF84E
:1049A000012806D021462846FFF78CFF012800D0B9
:1049B000002070BDF3B585B06B4602223221059808
:1049C00000F05AF800282BD101AB012235210598BF
:1049D00000F052F8002823D16A4610791278810736
:1049E000890D11430C2210406A4652788001104311
:1049F000CD10C6106B4604223C21059800F03CF80F
:104A000000280DD1684600886B4604B2684640888D
:104A1000022207B22A21059800F02EF8002802D0C1
:104A2000012007B0F0BD6846008800B20390284618
:104A3000FCF7E8F80290381BFCF7E4F80746701B17
:104A4000FCF7E0F805460398001BFCF7DBF8294665
:104A5000FCF75DF83946FCF797F80299FBF7FEFF83
:104A60000449FCF754F8FCF7D8F8069908800020B0
:104A7000D7E700000000204110B51846012A01D9EF
:104A800080231943D3B20A465F2104F055FC10BDC0
:104A900038B50C00054612D0012C10D0022C0ED0D7
:104AA000032C0CD0042C0AD0052C08D0062C06D0E0
:104AB000072C04D0FF21F0310CA000F00FFA6B4658
:104AC00001221021FFF7D8FF00280DD16946087890
:104AD0006B46C008C0002043087001221021284600
:104AE00000F0F4F9002800D0012038BD2E2E5C2EF5
:104AF0002E5C2E2E5C2E2E5C2E2E5C4C696272611A
:104B000072795C53444B5F4576616C5F426C7565AE
:104B10004E5247315C7372635C4854533232312ECB
:104B20006300000038B50C00054611D0082C0FD0EA
:104B3000102C0DD0182C0BD0202C09D0282C07D0ED
:104B4000302C05D0382C03D00D490EA000F0C6F94A
:104B50006B4601221021FFF78FFF00280ED1684617
:104B60000178C72001402143684601706B4601224D
:104B70001021284600F0AAF9002800D0012038BDF5
:104B8000070200002E2E5C2E2E5C2E2E5C2E2E5C3C
:104B90002E2E5C4C6962726172795C53444B5F45A6
:104BA00076616C5F426C75654E5247315C7372631F
:104BB0005C4854533232312E6300000038B50C4645
:104BC0000546012905D0002C03D00E490EA000F0A7
:104BD00085F96B4601222021FFF74EFF00280FD1F7
:104BE00069460978FB200140A00008436946087027
:104BF0006B4601222021284600F068F9002800D0E9
:104C0000012038BD350200002E2E5C2E2E5C2E2E8B
:104C10005C2E2E5C2E2E5C4C6962726172795C5344
:104C2000444B5F4576616C5F426C75654E5247310F
:104C30005C7372635C4854533232312E630000005F
:104C400038B50C460546012906D0002C04D0B32106
:104C500089000EA000F042F96B4601222121FFF7E6
:104C60000BFF00280FD169460978FD200140600044
:104C70000843694608706B4601222121284600F04E
:104C800025F9002800D0012038BD00002E2E5C2E12
:104C90002E5C2E2E5C2E2E5C2E2E5C4C6962726178
:104CA00072795C53444B5F4576616C5F426C75650D
:104CB0004E5247315C7372635C4854533232312E2A
:104CC0006300000038B50C00054605D0802C03D0E9
:104CD0000D490EA000F002F96B4601222221FFF7D8
:104CE000CBFE00280DD1694608786B464006400E81
:104CF0002043087001222221284600F0E7F800280E
:104D000000D0012038BD00000E0300002E2E5C2EC6
:104D10002E5C2E2E5C2E2E5C2E2E5C4C69627261F7
:104D200072795C53444B5F4576616C5F426C75658C
:104D30004E5247315C7372635C4854533232312EA9
:104D40006300000038B50C00054605D0402C03D0A8
:104D50000D490EA000F0C2F86B4601222221FFF798
:104D60008BFE00280ED168460178BF200140214308
:104D7000684601706B4601222221284600F0A6F801
:104D8000002800D0012038BD390300002E2E5C2EF3
:104D90002E5C2E2E5C2E2E5C2E2E5C4C6962726177
:104DA00072795C53444B5F4576616C5F426C75650C
:104DB0004E5247315C7372635C4854533232312E29
:104DC0006300000038B50C0005460AD0012C08D05D
:104DD000022C06D0032C04D0A32189000CA000F0E3
:104DE0007DF86B4601222021FFF746FE00280DD1F9
:104DF000694608786B4680088000204308700122CD
:104E00002021284600F062F8002800D0012038BD9B
:104E10002E2E5C2E2E5C2E2E5C2E2E5C2E2E5C4CAE
:104E20006962726172795C53444B5F4576616C5F75
:104E3000426C75654E5247315C7372635C485453E3
:104E40003232312E6300000038B50C00054605D023
:104E5000012C03D00E490FA000F040F86B46012250
:104E60002021FFF709FE00280FD1694608786B461C
:104E70004106490EE00108436946087001222021DD
:104E8000284600F023F8002800D0012038BD00009B
:104E9000610200002E2E5C2E2E5C2E2E5C2E2E5CCF
:104EA0002E2E5C4C6962726172795C53444B5F4593
:104EB00076616C5F426C75654E5247315C7372630C
:104EC0005C4854533232312E630000001846D3B28E
:104ED00010B50A465F2104F095FA10BD0A46014656
:104EE00001A005F0AFF9FEE757726F6E67207061A1
:104EF00072616D65746572732076616C75653A20B8
:104F000066696C65202573206F6E206C696E652064
:104F100025640D0A0000000000210B200007026834
:104F200052070DD5026804239A43026002680823E1
:104F30001A43026004E0491C052901DD0020704786
:104F400042689207F7D54168C907FCD0806880B2F3
:104F5000704710B5FFF7E0FF0446FFF7DDFF0004E0
:104F6000201810BDFEE77047704710B50A888B887F
:104F70004C881A43CB88640023431A430B89498920
:104F80001A43C9030A43C26010BD816370470174AC
:104F9000704701688022114301607047006B084030
:104FA00000D00120704740690007800F7047000063
:104FB00070B5044600680D46400840002060206837
:104FC00003214903884369798907490C0843206014
:104FD000687922494000085A2968214A4843101A32
:104FE000204A3026914209D84900FBF7C5FC2168C8
:104FF000B14321606168320389B20EE01A4A9142DE
:105000000DD84A008918FBF7B7FC2168B14310316D
:1050100021606168012289B2520489186160616867
:10502000EA88890A890211436160218D2085206800
:105030000621884329798907490F08432060297A86
:1050400008200129216806D08143216020680121C0
:105050000843206070BD0143F7E70000CC02002048
:105060000024F400A0860100801A0600007E70472C
:1050700003490160002101714171C18001727047D3
:10508000881300000068000601D501207047022047
:1050900070470000F0B5454C092526682D027019AF
:1050A000006E0027416B4248AE368DB0814242D03F
:1050B00006216846FFF7A2FA69464879C0210843ED
:1050C00069464871206806224019006E2430FFF7B7
:1050D0006BFA0746102105A8FFF790FA2068102206
:1050E0004019006E05A9001DFFF75EFA0743102165
:1050F00009A8FFF783FA206810224019006E09A959
:105100001430FFF751FA0146394313D12068294979
:105110004019006E264F4018800881002648081864
:1051200039460490FDF79EF804980068B84201D112
:10513000002700E0FB2722685019006EA6322430B9
:105140000190062001460090002008F0E8F90028B0
:1051500002D12068A6300190701D009A019901F0DB
:105160009EFE2268102631460020803208F0D7F9D2
:10517000002807D0206832464119096E8030091D89
:1051800001F08DFE226831460020903208F0C7F908
:10519000002807D0206832464119096E903014313A
:1051A00001F07DFE38460DB0F0BD00004C0300203C
:1051B000AAAAAAAA3400FCEF0000041030B50F4BD5
:1051C0000F4D1B6804465B1940331B7A412085B0A4
:1051D0009B0710D56B469981DA8100201882042044
:1051E000588203AA04A96D4607C502231A46012165
:1051F0002046FEF767FF05B030BD00004C030020DD
:105200002C07000008B50021084609F028FE0121FE
:10521000002009F0E7FE694608706946002009F0A1
:10522000D4FE684600780028F7D10021084609F02E
:1052300094FE0121002009F0A8FE0121002009F0C0
:1052400079FD0321002009F037FE0121002009F03B
:10525000A8FD0121002009F014FF0121002009F020
:10526000E7FD0321002009F0DDFE0321002009F005
:10527000B0FD0021084609F0ECFE0621002009F0EF
:10528000BFFD0121002009F074FD08BD10B500210B
:105290000846FFF7FDFB00210846FFF743FC01210C
:1052A0000020FFF78BFC03210020FFF78BFD00217E
:1052B0000846FFF7C5FC40210020FFF743FD802191
:1052C0000020FFF7FFFC00210846FFF7BDFD00208E
:1052D000FFF7DEFA10BD10B51121002009F086FCA1
:1052E0000121002009F02FFC1421002009F045FCC9
:1052F0000121002009F0CCFC0121002009F0E2FC92
:105300000021084609F092FC0121002009F0A8FCC8
:1053100010BD024600200146535C002B00D0012046
:10532000491CC9B20629F7D370470000024800683B
:105330002030C07F704700004C03002070B50E463F
:10534000054601462022002001F062FE040023D021
:10535000284600F06BF8050027D02879B04224D108
:10536000A87880071FD4A06801210173A0680021DC
:105370004673A06802268673A068C173A068017492
:10538000A06841740620E0802146052000F0BEF9A7
:10539000002803D0412509E064250BE0A8783043BC
:1053A000A870002506E0462500E0422500212046A1
:1053B00001F08AFE284670BD7CB514460D460028D3
:1053C0001ED1052D02D00B2D07D011E06279217975
:1053D0006088A31D03F0EAFD0AE021461231881F10
:1053E00001910090627921796088A31D03F0F5FD99
:1053F00021462846FEF754FD2146284600F0B4FA1F
:105400007CBD70B505460C46002000F00FF8002862
:105410000BD02905090D018000218170002C01D1DC
:105420000821817001210171C17070BD30B5024643
:105430000A480F230068DB010021C318A030047B59
:1054400007E0D86F0D0140190588954204D0491C2A
:10545000C9B28C42F5D8002030BD00004C030020BA
:1054600030B50A490F2309680246DB010020CB183A
:10547000A031097B07E0DC6F0501641924889442A0
:1054800003D0401CC0B28142F5D830BD4C0300208F
:105490008068017A407A0002081880B270470000E4
:1054A00070B50023134A1DE00F25ED0140191901C5
:1054B000C66F0024C81C345410684019C66F081DFC
:1054C000345410684019C06F445210684019C66FB8
:1054D00008460830345210680C314019C06F5B1C0C
:1054E0004450DBB21068AC21095C9942DCD8002042
:1054F00070BD00004C03002010B5024688680C46C1
:10550000817AC07A0002081881B2E088001FE0802A
:10551000042909D005290CD006290FD001212046E5
:1055200001F0D2FD002010BD21461046FEF7AAFB77
:1055300008E02146104600F03FF903E021461046FE
:1055400003F03EFB0028EED0E188091DE18010BD8C
:10555000F3B581B00D4600268888FFF767FF070086
:1055600056D0287B3C46083400900228F86833D097
:10557000002845D0E888002810D0218840182080D5
:10558000284601F01BFD01466068806801F0DFF9E4
:105590000120616801F0D2FC0020E8802088042806
:1055A00028D36068FFF774FF001D218880B2814214
:1055B00026D881421BD16168C88061680198FFF7D5
:1055C0009BFF0146002000290ED06168A94201D14D
:1055D0006060208045261FE0002801D04526DDE7D9
:1055E0006560E8882080D9E7606020800BE0452E68
:1055F00006D008E0452E06D1384600F0C7F90BE08A
:10560000384600F0C3F9002E06D10098012803D1D6
:105610000121284601F058FD3046FEBD024610B576
:105620000020002A05D0012A02D11046FFF790FF82
:1056300010BD1046FFF760FF10BD70B50546801E17
:105640000C46030004F01BFE0A0C1D1D06170B0B75
:105650000B0B060B0A4620782946FFF7ADFE70BDFE
:105660002846FEF71DFC608803F0F0FB2146284623
:1056700000F07AF970BD4A890888A11C03F0D6FCB5
:1056800070BD62880978284603F000FC70BD0000F8
:10569000F0B585B0FFF7E4FE1B4D04462868A03046
:1056A000007BA0422DD920463230694608736846F7
:1056B00004F0D8F90F262868F6018019C26F00217E
:1056C00024011153286827468019C26FE01C115429
:1056D00028680C378019C26F201D11542868801962
:1056E000C06FC05900280CD0012101F0EDFC2968E1
:1056F00000208919C96FC85129688919C96F0834F0
:10570000085305B0F0BD00004C03002010B50C4656
:105710000146042805D0052903D0062901D05020D0
:1057200010BDA068A2790272E088020AA0684272E5
:10573000A0688172A068090AC172E088001DE0803B
:10574000022020732046FBF76DFC0028E8D0E0889B
:10575000001FE080412010BDF8B53238010602205C
:10576000144D00900F262868F6010C0D8219372180
:105770004901D26F4118C97A175B012349070DD53A
:10578000D902083040181E224069022104F0F6FFB9
:10579000010003D08F80009804F0DCFF296800200E
:1057A0008919CA6F211D505429688919C96FE41CD1
:1057B0000855F8BD4C030020F0B50D468DB0002112
:1057C0000A91A96800280F7B02D0012822D0C3E0EB
:1057D000A888FFF745FE624E04463068A030007B83
:1057E000A04215D9122F08D15E48029020463230CF
:1057F00069460873684604F0E9F80F203168C00173
:105800000818C06F210140188178FD221140817075
:1058100000219EE0A888FFF723FE06465048AC22F0
:105820000168525CB24218D90F20C0010818C06F3D
:1058300032018418A278100710D5122F10D150070A
:1058400010D4A9882A46422005F032FBA078042112
:105850000843A070A868407B207179E0132F0AD01C
:10586000012F41D0A868417BA888FFF767FD0A9007
:1058700000286DD070E0A868E778437BBB4267D111
:10588000520765D5027C407C01230002101887B2C4
:1058900042200490A8880690372040010818C07A5A
:1058A00080070FD5D802083108181D2240690499D5
:1058B00004F064FF010005D0069A8A80CF80049826
:1058C00004F048FFA078FB210840A070E078401C5D
:1058D0000006000EE07001D10120E070684632360B
:1058E000067304F0BFF833E0100731D4A868E178FC
:1058F000407B88422CD150072AD5FB200240A27061
:10590000E078401C0006000EE07001D10120E0703C
:1059100068463236067304F0A5F811482022006864
:105920009101083040184224AE8802234069214684
:1059300004F024FF01000BD0A868437B877BC07B69
:105940008E80000238188B710881204604F002FF17
:105950000121284601F0B8FB0A980DB0F0BD000007
:105960004C0300203075000010B5022809D005282E
:1059700001D00B2808D1084609794088FFF741FD7E
:1059800002E04888FFF784FE002010BDF8B5054608
:10599000807810210843A870422000901148C90166
:1059A000006801270830401802263B462122406942
:1059B000009904F0E3FE04000AD0277166713246B4
:1059C0002946A01D01F06BFA2146009804F0C2FEA2
:1059D000E868002805D0012101F076FB0020E8608E
:1059E0002881F8BD4C030020FEB50F460646002472
:1059F00007F014F9054607F085F8082D01D30828AB
:105A000011D202A9684600F06DFA002F684606D050
:105A10004079400601D5022102E0032100E0017A2D
:105A2000B14200D041242046FEBD0000FFB507462C
:105A30008DB000200890079078481E4601684120EC
:105A400040010C1823204001081847711546C27107
:105A5000002B01D0002101710E9800287ED0FFF7A5
:105A600058FC00287AD0002E03D020342079012859
:105A700074D0FF24002E07D0022D02D0032D02D0B7
:105A800002E0002500E001256448654900684018EF
:105A90000B90022F01D0032F6AD1684605700622B1
:105AA000401C0E9901F0FBF96946002001F06AFBE9
:105AB000FF2803D00B99C2005118CC7911239B0108
:105AC0005649002E14D00968CA1894762323002260
:105AD0005B01C9180A71FF284AD0372044434F4858
:105AE000FF2100682F312018095C002904D015E03F
:105AF0000A68D1188C75EEE70146FF31FF30473157
:105B00001F3001F00FFC4548062200682118FF31C4
:105B100005A8483101F0C3F9012007903F49FF2251
:105B200008684E322018125C002A1CD10146FF3151
:105B3000FF304031303001F0F5FB38480622006874
:105B40002118FF3103A8413101F0A9F90120089083
:105B5000002E08D031480121026800E017E0232020
:105B60004001101801710798002801D0002E0AD0BA
:105B7000324629460E9800F0F9FC0898002806D015
:105B8000012103A815E03246012105A8F3E7002F03
:105B900006D0012F1AD0022F02D0032F07D115E013
:105BA0001E48062201686846783101F078F9002124
:105BB000684600F045FD0124A402002F10D0012FFB
:105BC00016D0022F0CD0032F24D111E01348062247
:105BD000016814480918684601F061F90121E7E7F6
:105BE0000E480068816F041909027B30E1650CE002
:105BF0000A4805680B482818FAF726FF00022C19F6
:105C0000401CE0650748C01C2818FAF71DFF000279
:105C1000000A2066002011B0F0BD00004C030020F7
:105C20006C040000EF06000000207047F0B5814DC5
:105C3000044641212868490185B04018019006F0CA
:105C400061FF09263602002C7ED008280DD34220A1
:105C50000746039078480024029006F0BBFF0090AE
:105C6000082004900098082802D30C2005B0F0BD4D
:105C700000F038FC00F02AFB0098704980014218BF
:105C800028688019C16C01988030036BC03159803D
:105C9000016B09800021C94301820021456ACB1DA7
:105CA000EF54856AEF54C56AEF54056AEF54066BEA
:105CB000039DF554039B3F0A1B0A0393466A029D0A
:105CC0000B1DF554866AF554C66AF554066AF554F8
:105CD000066BF554029B491C1B0AC9B202930329A7
:105CE000DCD3009911234907090E456A0B43AB72B7
:105CF000856AAB72C56AAB72019B1D7E0223022DC1
:105D00000BD1456AAE7A1E43AE72856AAE7A1E43E7
:105D1000AE72C56AAE7A1E43AE72466A0127F7724A
:105D2000866AF772C66AF7721943036B9972036A3F
:105D30009972036B0321D972016ACF7200210B465D
:105D4000535455186B7100E04BE0491CC9B205294A
:105D5000F6D38025957201992031CE7BD672868C40
:105D60001682068E5682364E9661364ED6613E4675
:105D70002027BE54D375019A127E002A04D0012A2E
:105D800004D0062A12D110E018240FE00322836801
:105D900028245202934209D1C368934206D10022BB
:105DA0000492FF225632028200E01024497B00292F
:105DB00004D0012904D0022906D103E0C02102E069
:105DC0002C4301E040210C430499C2680902806819
:105DD00053184218E108C900491C009809F0FCFB5F
:105DE00044E772B608280AD22A6891190B6B582129
:105DF0004143891C5C5C6407640F012C01D062B6CE
:105E000016E0F024A45C002C04D01126FF24B60177
:105E10009219947500225A541F212A688901511839
:105E20000B790122824093430B7162B60BF020FB89
:105E300000201BE74C0300208100B000CC000020B4
:105E4000D6BE898E55555500FFB50C4691B001461A
:105E5000102204A801F023F81022214608A801F01E
:105E60001EF804A8009008A801900CA80290002633
:105E700068460673184841210068490145180927FA
:105E8000FF062C46803472B66846007B002808D096
:105E900062B610220CA9139801F001F8002015B089
:105EA000F0BD286D3969401A0C4900020988000AC2
:105EB00009070BD51499002908D10949FF388842F0
:105EC00004D368460673606430BF03E068466664C6
:105ED00006F088FD62B6D6E74C030020C000002023
:105EE00002FF7F0070B5044608480D460068412156
:105EF000490146182046316807F016FA7268227187
:105F0000100A6071100C2870002070BD4C03002036
:105F100070B50D46044606F0F5FD082801D31F2094
:105F200070BD0A4841210068490140180022416BB8
:105F3000931CC95CA154521C062AF8DB406B007804
:105F40004006C00F2870002070BD00004C030020E8
:105F500010B504460348807A06F0E4FC2070002067
:105F600010BD000000010020F8B50C46054606F003
:105F700055FE082801D31F20F8BD0A4E09273068B6
:105F80003F02C019006D06222946801C06F0C1FCA4
:105F90003068C019006D00784006C00F20700020E6
:105FA000F8BD00004C030020F8B55D4C4120256889
:105FB00040012818002201460923027620311B02E5
:105FC0000A73ED182E6DFB27283686632D6DFF268C
:105FD000503545630835856207258D73416B0A701E
:105FE000456B062169702468E1180D6D7835C5632D
:105FF000096D0825A03101640146C0314A720A7258
:10600000CD738D731B250D8249364E828F82454F8D
:10601000CF82FB270F83434F4F838D83CE8342492B
:10602000626521653E4C01462668B518F618376D45
:10603000603516462D7E2A36BD552668F618376D12
:1060400016465236BD552668F618376D16467A360E
:10605000BD552668F618376D1646A236BD550D702B
:10606000521CD2B2491C062ADED300250D70826B69
:1060700006215170426B51700246803255612946AB
:1060800095611BE009252D025B1958254D431F6BB7
:106090002B46264E0A33FE52092327681B02FB18A3
:1060A0001F6B2B4600262033FE50092327681B0256
:1060B000FB1824351B6B491C5E51C9B22368AC2503
:1060C000ED5C8D42DED8002501219583C902018453
:1060D00055640920216800020918096C936B891C1A
:1060E000598021680818006C516B801C488010484A
:1060F000818D206840300186FBF7CAF91F21206896
:10610000890141183F220D715201082180188172C6
:1061100000F010F809F060F920682030C574F8BD6F
:106120004C03002048080000862E0000FFFF0000FE
:106130007803002010B5084C2F2320685B01F8225B
:10614000FF21C01800F0AFFE172221680020920145
:106150008918087710BD00004C03002010B50446D4
:106160008088032106F0F2FC022172B6082815D2BD
:106170000D4A1368092212029A185823126B5843C9
:10618000831CD35C002B09D0002110182160016A08
:10619000002906D0416A0C604521446262B6084677
:1061A00010BD0462F8E700004C030020F8B5064675
:1061B00025480F4600684121490144180921090278
:1061C0004018016B582070430D18304607F0B6F99F
:1061D000002816D02046CF30CC3472B60278012188
:1061E000B140082A02D36A7992070ED068798007F5
:1061F00026D4154800682030C27D0A43C2753A2073
:106200001FE02046CE30CA34E7E77A060F4B52082B
:10621000D2186B6B1A603A0601D4132200E01222E6
:106220006B7913436B710670288B208040350648CC
:106230006F7500682030C27D8A43C275002000E07F
:106240000C2062B6F8BD00004C03002003020200DF
:106250001F20704770B51C4A412312685B01D41897
:10626000E36B0833A3621F2901D9302070BD0022DF
:10627000656BE66BAD5CB554521CD2B2082AF7D3FD
:10628000002205E00578521C1D70401CD2B25B1C38
:106290008A42F7D32C200155E06B891D417006F02E
:1062A00031FC217E01290CD008280AD2616BE06BF9
:1062B000E16360638034616A4880A16A4880E16A72
:1062C0004880002070BD00004C03002030B53148EC
:1062D0004121006849014018416B037E0A781B0781
